{
  "contractName": "DEXToken",
  "abi": [
    {
      "constant": true,
      "inputs": [],
      "name": "totalSupply",
      "outputs": [
        {
          "name": "",
          "type": "uint256"
        }
      ],
      "payable": false,
      "stateMutability": "view",
      "type": "function"
    },
    {
      "constant": false,
      "inputs": [],
      "name": "DEX_token",
      "outputs": [],
      "payable": false,
      "stateMutability": "nonpayable",
      "type": "function"
    }
  ],
  "bytecode": "0x608060405234801561001057600080fd5b5060c88061001f6000396000f3006080604052600436106049576000357c0100000000000000000000000000000000000000000000000000000000900463ffffffff16806318160ddd14604e578063a519ae2a146076575b600080fd5b348015605957600080fd5b506060608a565b6040518082815260200191505060405180910390f35b348015608157600080fd5b5060886090565b005b60005481565b629896806000819055505600a165627a7a7230582035f96e72bb2d10478d4cd92c3253ae2b5f520c2e3291a4ccca00d2bdf7f9dc7c0029",
  "source": "pragma solidity ^0.4.2;\r\n\r\ncontract DEXToken {\r\n // constructor \r\n //set the total number of tokens\r\n //Read the total number of tokens\r\n    uint256 public totalSupply;\r\n\r\n    function DEX_token() public {\r\n        totalSupply = 10000000;\r\n    }   \r\n}",
  "sourcePath": "/mnt/c/Users/Kwaz9/Desktop/Byte/DEX/contracts/DEX_token.sol",
  "compiler": {
    "name": "solc",
    "version": "0.4.24+commit.e67f0147.Emscripten.clang"
  },
  "schemaVersion": "2.0.1",
  "updatedAt": "2018-10-28T19:20:44.189Z"
}